:03000000020006F5
:03005F0002000399
:030003000200C731
:10006200AE82AF83EE4F6016C28D758CA2758A4048
:10007200D28C308DFDC28C1EBEFF011F80E622AFE6
:10008200827E00EF30E71AD2B1900004C007C006AA
:10009200120062C2B1900001120062D006D0078045
:1000A20018D2B1900001C007C006120062C2B1901E
:1000B2000004120062D006D0078F05ED2DFF0EBEA0
:1000C200080040BF2275A15575A1AA75B98675A110
:1000D200005396FD43970253B0FD43C98043C910B4
:1000E20075890175E22943D10175080030D811D212
:1000F200B1C2B17E017F008EEC8FED75DC02C2D8F9
:1001020030D9E9E5D9540F60030201EC75DD00AF87
:10011200D9530730BF00030201D4BF20030201B448
:10012200BF300280030201ECD2B1C2B1900001E003
:1001320030E755900002E0FFBF060280030201ECA7
:10014200900004E0FFBF010280030201ECD2B1C2C1
:10015200B1D2B1C2B1D2B1C2B1900007E0FFBF12B9
:100162000050030201EC7F00EF2401FDE43400FEA5
:10017200EF9001F5938D828E83F00FBF120040E85D
:1001820075DD1275DCC08062D2B1C2B1D2B1C2B12A
:10019200D2B1C2B1D2B1C2B1D2B1C2B1900002E009
:1001A200FFBF0546900003E0F50875DD0075DCC071
:1001B2008038D2B1C2B1D2B1C2B1D2B1C2B1D2B120
:1001C200C2B1E5086024E508B5E302801D8508E3B5
:1001D2008018D2B1C2B1D2B1C2B1D2B1C2B1D2B120
:0F01E200C2B1D2B1C2B1D2B1C2B1C2D90200EE24
:1001F50012010002FF000040341278560002000090
:020205000001F6
:06003500E478FFF6D8FD9F
:100013007900E94400601B7A00900207784175A0DB
:1000230000E493F2A308B8000205A0D9F4DAF2754C
:02003300A0FF2C
:10003B007800E84400600A790175A000E4F309D860
:10004B00FC7840E84400600C7901900001E4F0A3D7
:04005B00D8FCD9FAFA
:0D0006007581081201F1E58260030200031C
:0401F10075820022F1
:00000001FF
