:03000000020006F5
:03017F0002000378
:030003000201DF18
:10018200AE82AF83EE4F6016C28D758CA2758A4027
:10019200D28C308DFDC28C1EBEFF011F80E622AFC5
:1001A200827E00EF30E716900004C007C0061201FD
:1001B20082900001120182D006D0078014900001C3
:1001C200C007C006120182900004120182D006D03C
:1001D200078F05ED2DFF0EBE080040C7227F007578
:1001E200A15575A1AA75B9868FA15396FD439702B1
:1001F20053B0FD43C98043C91075890175E2294393
:10020200D101750B0030D80D7D017E008DEC8EED95
:1002120075DC02C2D830D9EDE5D9540F600302046F
:100222003975DD00AED9530630BE000302048EBE1E
:10023200200302041BBE3002800302048ED2B1C22C
:10024200B1900001E020E7030203B9900002E0FE52
:10025200BE0602800302048E900004E0FEBE01028C
:100262008014BE02028057BE0603020337BE220379
:1002720002037F02048E7F00900007E0FEBE1200A0
:10028200500302048E900555E493FCA3E493FDA36E
:10029200E493FE8C6C8D6D8E6E900558E493FE8E09
:1002A2006F75700090000175F000C007120493D0C2
:1002B20007900558E493F5DD75DCC002048E7F00DB
:1002C200900007E0FEBE1200403990055DE493FB0A
:1002D200A3E493FCA3E493FD8B6C8C6D8D6E90056F
:1002E20060E493FD8D6F75700090000175F000C0A1
:1002F20007120493D007900560E493F5DD75DCC026
:1003020002048E90055DE493FBA3E493FCA3E493C3
:10031200FD8B6C8C6D8D6E8E6F757000900001750B
:10032200F000C007C006120493D006D0078EDD7518
:10033200DCC002048E7F00900007E0FEBE0A02804D
:100342000302048E900561E493FCA3E493FDA3E40D
:1003520093FE8C6C8D6D8E6E900564E493FE8E6FB1
:1003620075700090000175F000C007120493D00769
:10037200900564E493F5DD75DCC002048E7F009085
:100382000559E493FCA3E493FDA3E493FE8C6C8DE6
:100392006D8E6E90055CE493FE8E6F8F70900001FF
:1003A20075F000C007120493D00790055CE493F542
:1003B200DD75DCC002048ED2B1C2B1D2B1C2B1D2FB
:1003C200B1C2B1D2B1C2B1D2B1C2B1900002E0FEAB
:1003D200BE05028008BE0902801202048E9000034C
:1003E200E0F50B75DD0075DCC002048E75D2124398
:1003F200EA8053EABF7D417E008DEE8EEF75D41AFE
:1004020043EB0453EBF77D817E008DE48EE57F01A3
:1004120075DD0075DC4002048EEF70087F0175DC2B
:10042200C202048EE50B600AE50BB5E30280038588
:100432000BE375DC428055AED953060FBE013D90E9
:100442000041E0FEBE0104D2B18041BE0204C2B14D
:10045200803ABE0337D2B1C2B19000817405F090E8
:1004620000827410F09000837419F09000847494E8
:10047200F075D540E5D454FCF5D48010AED95306BE
:100482000FBE0208E5D4440254FEF5D4C2D90202DA
:010492000762
:1005230012010002000000404C05680200010000B7
:1005330000010902200001010080320904000002C9
:100543000300000007050102400001070582024085
:020553000001A5
:10005F00750C12750D01750E00750F027510007578
:10006F00110075120075134075143B751541751607
:10007F0007751721751800751901751A00751B0082
:10008F00751C00751D01751E06751F007520FF7507
:10009F0021097522017523A175240175250975267E
:1000AF0001752715752800752926752AFF752B00F0
:1000BF00752C75752D08752E95752F0175308175F9
:1000CF003102753209753301753415753500753682
:1000DF00267537FF753800753975753A08753B9574
:1000EF00753C01753D91753E02753FC075400975B0
:1000FF0041027542227543007544017545017546ED
:10010F0000754780754832754909754A04754B006B
:10011F00754C00754D01754E03754F007550007588
:10012F005100755209755321755411755501755646
:10013F0000755701755822755922755A00755B075E
:10014F00755C05755D01755E03755F4075600075C3
:10015F00610A75620A7563067564007565027566D6
:10016F0000756700756800756940756A00756B00EA
:100555000C0040121E004022400040226200400A6A
:06003500E478FFF6D8FD9F
:10049300AD82AE83AFF08D718E728F73856C748570
:1004A3006D75856E76A86FA9708803890418B8FFE7
:1004B3000119EB4C60258574828575838576F0126E
:1004C3000503FCA38582748583758D828E838FF0EB
:1004D300EC1204E8A3AD82AE8380CE85718285726F
:0504E300838573F02287
:100013007900E94400601B7A0090056578C175A0FA
:1000230000E493F2A308B8000205A0D9F4DAF2754C
:02003300A0FF2C
:1004E80020F71130F6138883A88220F509F6A8832F
:0B04F8007583002280FEF280F5F022E8
:10003B007800E84400600A790175A000E4F309D860
:10004B00FC78C0E84400600C7901900001E4F0A357
:04005B00D8FCD9FAFA
:0D00060075817612051FE58260030200037C
:1005030020F71430F6148883A88220F507E6A88321
:1005130075830022E280F7E49322E02275820022B1
:00000001FF
