:03000000020006F5
:03005F0002000399
:030003000200C731
:10006200AE82AF83EE4F6016C28D758CA2758A4048
:10007200D28C308DFDC28C1EBEFF011F80E622AFE6
:10008200827E00EF30E71AD2B1900004C007C006AA
:10009200120062C2B1900001120062D006D0078045
:1000A20018D2B1900001C007C006120062C2B1901E
:1000B2000004120062D006D0078F05ED2DFF0EBEA0
:1000C200080040BF2275A15575A1AA75B98675A110
:1000D200005396FD43970253B0FD43C98043C910B4
:1000E20075890175E22975E22943D10530D811D20B
:1000F200B1C2B17E017F008EEC8FED75DC02C2D8F9
:1001020030D9E9D2B1C2B1D2B1C2B19000017414F6
:10011200F09000027412F09000037419F090000441
:0D0122007486F075DD0475DC00C2D980BF65
:06003500E478FFF6D8FD9F
:100013007900E94400601B7A00900133784175A0B0
:1000230000E493F2A308B8000205A0D9F4DAF2754C
:02003300A0FF2C
:10003B007800E84400600A790175A000E4F309D860
:10004B00FC7840E84400600C7901900001E4F0A3D7
:04005B00D8FCD9FAFA
:0D00060075810712012FE5826003020003DF
:04012F0075820022B3
:00000001FF
