:03000000020006F5
:03017F0002000378
:030003000201DF18
:10018200AE82AF83EE4F6016C28D758CA2758A4027
:10019200D28C308DFDC28C1EBEFF011F80E622AFC5
:1001A200827E00EF30E716900004C007C0061201FD
:1001B20082900001120182D006D0078014900001C3
:1001C200C007C006120182900004120182D006D03C
:1001D200078F05ED2DFF0EBE080040C7227F007578
:1001E200A15575A1AA75B9868FA15396FE439701B1
:1001F2005392DF4393205392BF439340C29553B02F
:10020200FE43C98043C91075890175E22943D101B2
:10021200750B0030D80D7D017E008DEC8EED75DC06
:1002220002C2D830D9EDE5D9540F600302042F750C
:10023200DD00AED9530630BE0003020480BE2003A7
:10024200020411BE30028003020480900001E0200B
:10025200E7030203C3900002E0FEBE06028003022F
:100262000480900004E0FEBE01028014BE020280FF
:1002720057BE0603020341BE220302038902048021
:100282007F00900007E0FEBE12005003020480903F
:100292000547E493FCA3E493FDA3E493FE8C6C8DE9
:1002A2006D8E6E90054AE493FE8E6F75700090001D
:1002B2000175F000C007120485D00790054AE49347
:1002C200F5DD75DCC00204807F00900007E0FEBE11
:1002D2001200403990054FE493FBA3E493FCA3E49E
:1002E20093FD8B6C8C6D8D6E900552E493FD8D6F3A
:1002F20075700090000175F000C007120485D007E8
:10030200900552E493F5DD75DCC002048090054F40
:10031200E493FBA3E493FCA3E493FD8B6C8C6D8DBF
:100322006E8E6F75700090000175F000C007C006F8
:10033200120485D006D0078EDD75DCC00204807FF2
:1003420000900007E0FEBE0A0280030204809005CE
:1003520053E493FCA3E493FDA3E493FE8C6C8D6DB4
:100362008E6E900556E493FE8E6F757000900001BC
:1003720075F000C007120485D007900556E493F586
:10038200DD75DCC00204807F0090054BE493FCA382
:10039200E493FDA3E493FE8C6C8D6D8E6E90054EFE
:1003A200E493FE8E6F8F7090000175F000C007120B
:1003B2000485D00790054EE493F5DD75DCC0020498
:1003C20080900002E0FEBE05028008BE0902801293
:1003D200020480900003E0F50B75DD0075DCC002BD
:1003E200048075D21243EA8053EABF7D417E008DBC
:1003F200EE8EEF75D41A43EB0453EBF77D817E004A
:100402008DE48EE57F0175DD0075DC40020480EF2E
:1004120070087F0175DCC2020480E50B600AE50BFF
:10042200B5E3028003850BE375DC428051AED953FC
:10043200060FBE0139900041E0FEBE0106C296D20F
:10044200B0803BBE0206D296C2B08032BE032F906D
:1004520000817401F090008274FFF0900083F090AC
:100462000084F075D540E5D454FCF5D48010AED9A3
:1004720053060FBE0208E5D4440254FEF5D4C2D995
:030482000202155E
:1005150012010002000000404C05680200010000C5
:1005250000010902200001010080320904000002D7
:100535000300000007050102400001070582024093
:020545000001B3
:10005F00750C12750D01750E00750F027510007578
:10006F00110075120075134075143B751541751607
:10007F0007751721751800751901751A00751B0082
:10008F00751C00751D01751E06751F007520FF7507
:10009F0021097522017523A175240175250975267E
:1000AF0001752715752800752926752AFF752B00F0
:1000BF00752C75752D08752E95752F0175308175F9
:1000CF003102753209753301753415753500753682
:1000DF00267537FF753800753975753A08753B9574
:1000EF00753C01753D91753E02753FC075400975B0
:1000FF0041027542227543007544017545017546ED
:10010F0000754780754832754909754A04754B006B
:10011F00754C00754D01754E03754F007550007588
:10012F005100755209755321755411755501755646
:10013F0000755701755822755922755A00755B075E
:10014F00755C05755D01755E03755F4075600075C3
:10015F00610A75620A7563067564007565027566D6
:10016F0000756700756800756940756A00756B00EA
:100547000C0040121E004022400040226200400A78
:06003500E478FFF6D8FD9F
:10048500AD82AE83AFF08D718E728F73856C74857E
:100495006D75856E76A86FA9708803890418B8FFF5
:1004A5000119EB4C60258574828575838576F0127C
:1004B50004F5FCA38582748583758D828E838FF008
:1004C500EC1204DAA3AD82AE8380CE85718285728B
:0504D500838573F02295
:100013007900E94400601B7A0090055778C175A008
:1000230000E493F2A308B8000205A0D9F4DAF2754C
:02003300A0FF2C
:1004DA0020F71130F6138883A88220F509F6A8833D
:0B04EA007583002280FEF280F5F022F6
:10003B007800E84400600A790175A000E4F309D860
:10004B00FC78C0E84400600C7901900001E4F0A357
:04005B00D8FCD9FAFA
:0D000600758176120511E58260030200038A
:1004F50020F71430F6148883A88220F507E6A88330
:1005050075830022E280F7E49322E02275820022BF
:00000001FF
