:03000000020006F5
:03005F0002000399
:030003000200BF39
:10006200AE82AF83EE4F6016C28D758CA2758A4048
:10007200D28C308DFDC28C1EBEFF011F80E622AFE6
:10008200827E00EF30E716900004C007C00612001F
:1000920062900001120062D006D007801490000125
:1000A200C007C006120062900004120062D006D09F
:1000B200078F05ED2DFF0EBE080040C7227F007599
:1000C200A15575A1AA75B9868FA15396FE439701D2
:1000D2005392DF4393205392BF439340C29553B050
:1000E200FE43C98043C91075890175E22943D101D4
:1000F200750B0030D80D7D017E008DEC8EED75DC28
:1001020002C2D830D9EDE5D9540F600302037775E6
:10011200DD00AED9530630BE00030203C8BE200381
:1001220002035ABE300280030203C8900001E0209D
:10013200E70302030D900002E0FEBE060280030206
:1001420003C8900004E0FEBE0102801ABE020280D3
:100152005DBE0303020227BE060302028BBE220318
:100162000202D30203C87F00900007E0FEBE120025
:1001720050030203C89004A1E493FCA3E493FDA3FB
:10018200E493FE8C0C8D0D8E0E9004A4E493FE8EEF
:100192000F75100090000175F000C0071203CDD05A
:1001A200079004A4E493F5DD75DCC00203C87F0068
:1001B200900007E0FEBE120040399004EDE493FB8C
:1001C200A3E493FCA3E493FD8B0C8C0D8D0E9004A1
:1001D200F0E493FD8D0F75100090000175F000C0E2
:1001E200071203CDD0079004F0E493F5DD75DCC06F
:1001F2000203C89004EDE493FBA3E493FCA3E4930D
:10020200FD8B0C8C0D8D0E8E0F75100090000175FC
:10021200F000C007C0061203CDD006D0078EDD75F0
:10022200DCC00203C87F00900003E075F004A4FE66
:10023200ADF0243DF582ED3405F583E493FAA3E4B1
:1002420093FBA3E493FC8A0C8B0D8C0EEE243DFEF3
:10025200ED3405FD74032EFEE43DFD8E828D83E4B4
:1002620093FC8C0F8F1090000175F000C007C00640
:10027200C0051203CDD005D006D0078E828D83E44F
:1002820093F5DD75DCC00203C87F00900007E0FE35
:10029200BE0A0280030203C89004FBE493FCA3E4B9
:1002A20093FDA3E493FE8C0C8D0D8E0E9004FEE460
:1002B20093FE8E0F75100090000175F000C00712BA
:1002C20003CDD0079004FEE493F5DD75DCC0020394
:1002D200C87F009004C7E493FCA3E493FDA3E493D6
:1002E200FE8C0C8D0D8E0E9004CAE493FE8E0F8F41
:1002F2001090000175F000C0071203CDD0079004E2
:10030200CAE493F5DD75DCC00203C8900002E0FE8A
:10031200BE05028008BE090280120203C8900003D3
:10032200E0F50B75DD0075DCC00203C875D212431F
:10033200EA8053EABF7D417E008DEE8EEF75D41ABE
:1003420043EB0453EBF77D817E008DE48EE57F0164
:1003520075DD0075DC40806EEF70077F0175DCC2D1
:100362008064E50B600AE50BB5E3028003850BE3CD
:1003720075DC428051AED953060FBE01399000415F
:10038200E0FEBE0106C296D2B0803BBE0206D29605
:10039200C2B08032BE032F9000817401F0900082BF
:1003A20074FFF0900083F0900084F075D540E5D49E
:1003B20054FCF5D48010AED953060FBE0208E5D422
:0B03C200440254FEF5D4C2D90200F53D
:10045D0012010002000000404C056802000100007E
:10046D000001090220000101008032090400000290
:10047D00030000000705010240000107058202404C
:10048D00000112010002000000403B410721000164
:10049D00010203018F0480120600FF0901A1010969
:1004AD0001150026FF00750895018102090115004F
:1004BD0026FF00750895019102C0A504802209024E
:1004CD002200010100803209040000010300000038
:1004DD000921110100012222000705010340000A34
:1004ED00CB0480220A060002000000400000F10447
:1004FD00800A04030904100341004E004200540019
:10050D006500630068001A03550053004200200087
:10051D00520065006C0061007900480049004400FC
:10052D001003310037004E006F00760032003400AA
:10053D00FF048004030580101305801A2D0580101B
:06003500E478FFF6D8FD9F
:1003CD00AD82AE83AFF08D118E128F13850C148517
:1003DD000D15850E16A80FA9108803890418B8FFEE
:1003ED000119EB4C60258514828515838516F01255
:1003FD00043DFCA38582148583158D828E838FF039
:10040D00EC120422A3AD82AE8380CE8511828512BB
:05041D00838513F022AD
:100013007900E94400601B7A0090054D78C175A012
:1000230000E493F2A308B8000205A0D9F4DAF2754C
:02003300A0FF2C
:1004220020F71130F6138883A88220F509F6A883F5
:0B0432007583002280FEF280F5F022AE
:10003B007800E84400600A790175A000E4F309D860
:10004B00FC78C0E84400600C7901900001E4F0A357
:04005B00D8FCD9FAFA
:0D000600758116120459E5826003020003A3
:10043D0020F71430F6148883A88220F507E6A883E8
:10044D0075830022E280F7E49322E0227582002278
:00000001FF
