:03000000020006F5
:03005F0002000399
:030003000200BF39
:10006200AE82AF83EE4F6016C28D758CA2758A4048
:10007200D28C308DFDC28C1EBEFF011F80E622AFE6
:10008200827E00EF30E716900004C007C00612001F
:1000920062900001120062D006D007801490000125
:1000A200C007C006120062900004120062D006D09F
:1000B200078F05ED2DFF0EBE080040C7227F007599
:1000C200A15575A1AA75B9868FA15396FD439702D2
:1000D20053B0FD43C98043C91075890175E22943B4
:1000E200D10175080030D80D7D017E008DEC8EEDBA
:1000F20075DC02C2D830D9EDE5D9540F6003020293
:100102004975DD00AED9530630BE000302029EBE21
:10011200200302022BBE3002800302029E900001E5
:10012200E020E7030201DD900002E0FEBE0602804D
:100132000302029E900004E0FEBE0102800EBE0297
:1001420002803BBE06030201D302029E7F009000A2
:1001520007E0FEBE1200500302029E7E00EE240162
:10016200FCE43400FDEE9002A7938C828D83F00EA6
:10017200BE120040E875DD1275DCC002029E7F00EF
:10018200900007E0FEBE200040237D00ED2401FB2D
:10019200E43400FCED9002B9938B828C83F00DBDA8
:1001A200200040E875DD2075DCC002029E7D00C3A0
:1001B200ED9E5015ED2401FBE43400FCED9002B9F4
:1001C200938B828C83F00D80E68EDD75DCC002029B
:1001D2009E7F008FDD75DCC002029E900002E0FE71
:1001E200BE05028008BE0902801202029E90000330
:1001F200E0F50875DD0075DCC002029E75D212437F
:10020200EA8053EABF7D417E008DEE8EEF75D41AEF
:1002120043EB0453EBF77D817E008DE48EE57F0195
:1002220075DD0075DC4002029EEF70087F0175DC0F
:10023200C202029EE508600AE508B5E30280038572
:1002420008E375DC428055AED953060FBE013D90DE
:100252000041E0FEBE0104D2B18041BE0204C2B13F
:10026200803ABE0337D2B1C2B19000817414F090CB
:1002720000827412F09000837419F09000847490DC
:10028200F075D540E5D454FCF5D48010AED95306B0
:100292000FBE0208E5D4440254FEF5D4C2D90200CE
:0102A200E774
:1002A70012010002000000403412785600020000DC
:1002B700000109022000010100C032090400000208
:1002C700FFFFFF000705010240000107058202400A
:0202D700000124
:06003500E478FFF6D8FD9F
:100013007900E94400601B7A009002D978C175A089
:1000230000E493F2A308B8000205A0D9F4DAF2754C
:02003300A0FF2C
:10003B007800E84400600A790175A000E4F309D860
:10004B00FC78C0E84400600C7901900001E4F0A357
:04005B00D8FCD9FAFA
:0D0006007581081202A3E582600302000369
:0402A300758200223E
:00000001FF
