:03000000020006F5
:0300950002000363
:030003000200F503
:10009800AE82AF83EE4F6016C28D758CA2758A4012
:1000A800D28C308DFDC28C1EBEFF011F80E622AFB0
:1000B800827E00EF30E716900004C007C0061200E9
:1000C80098900001120098D006D007801490000183
:1000D800C007C006120098900004120098D006D0FD
:1000E800078F05ED2DFF0EBE080040C7227F007563
:1000F800A15575A1AA75B9868FA15396FD4397029C
:1001080053B0FD43C98043C91075890175E229437D
:10011800D101750B0030D80D7D017E008DEC8EED80
:1001280075DC02C2D830D9EDE5D9540F600302025C
:100138009575DD00AED9530630BE00030202EABE53
:100148002003020277BE300280030202EA90000117
:10015800E020E703020229900002E0FEBE060280CA
:10016800030202EA900004E0FEBE0102800EBE0215
:10017800028051BE060302021F0202EA7F009000BD
:1001880007E0FEBE120050030202EA9003B1E493B6
:10019800FCA3E493FDA3E493FE8C1E8D1F8E209098
:1001A80003B4E493FE8E2175220090000175F000DF
:1001B800C0071202EFD0079003B4E493F5DD75DCB5
:1001C800C00202EA7F00900007E0FEBE2000402344
:1001D8007D00ED2401FBE43400FCED900391938B4A
:1001E800828C83F00DBD200040E875DD2075DCC0F1
:1001F8000202EA7D00C3ED9E5015ED2401FBE434B4
:1002080000FCED900391938B828C83F00D80E68E39
:10021800DD75DCC00202EA7F008FDD75DCC00202FA
:10022800EA900002E0FEBE05028008BE09028012C4
:100238000202EA900003E0F50B75DD0075DCC002F0
:1002480002EA75D21243EA8053EABF7D417E008DEF
:10025800EE8EEF75D41A43EB0453EBF77D817E00E5
:100268008DE48EE57F0175DD0075DC400202EAEF62
:1002780070087F0175DCC20202EAE50B600AE50B33
:10028800B5E3028003850BE375DC428055AED95394
:10029800060FBE013D900041E0FEBE0104D2B180D0
:1002A80041BE0204C2B1803ABE0337D2B1C2B19096
:1002B80000817405F09000827410F0900083741926
:1002C800F09000847494F075D540E5D454FCF5D4CE
:1002D8008010AED953060FBE0208E5D4440254FE7E
:0702E800F5D4C2D902011D8B
:10037F0012010002000000404C056802000100005D
:10038F00000109022000010100803209040000026F
:10039F00030000000705010240000107058202402B
:0203AF0000014B
:10005F00750C12750D01750E00750F027510007578
:10006F00110075120075134075143B751541751607
:10007F0007751721751800751901751A00751B0082
:06008F00751C00751D0147
:0403B1000C004012EA
:06003500E478FFF6D8FD9F
:1002EF00AD82AE83AFF08D238E248F25851E26859C
:1002FF001F27852028A821A9228803890418B8FF61
:10030F000119EB4C60258526828527838528F012FD
:10031F00035FFCA38582268583278D828E838FF0D2
:10032F00EC120344A3AD82AE8380CE852382852455
:05033F00838525F0227A
:100013007900E94400601B7A009003B578C175A0AC
:1000230000E493F2A308B8000205A0D9F4DAF2754C
:02003300A0FF2C
:1003440020F71130F6138883A88220F509F6A883D4
:0B0354007583002280FEF280F5F0228D
:10003B007800E84400600A790175A000E4F309D860
:10004B00FC78C0E84400600C7901900001E4F0A357
:04005B00D8FCD9FAFA
:0D00060075812812037BE582600302000370
:10035F0020F71430F6148883A88220F507E6A883C7
:10036F0075830022E280F7E49322E0227582002257
:00000001FF
